:020000004A288C
:0C000600831223088A00220882000800F0
:0C00120007308312DD00DD0B0C28080015
:10001E00C33083129F052008D000D00D5010D00D94
:10002E00501050089F0409209F149F1C2028000088
:10003E001C281E08D100D00183161E08D0040030E3
:04004E00D1040800D1
:100052000F308312A4000030A5002030A60000302B
:10006200C3309F052109D00050089F05F030831648
:0A0072009F0483129F171F1408005B
:10007C0003208A110A128000840AA20A0319A30A17
:08008C00D003031D3E2808000B
:10009400AC228312AF01B001B101B201B301B401CA
:1000A400B501B601B701B801B901BA01BB01BC0180
:1000B4008316850107128711003091008312850190
:1000C4000712871129200530A0000F205008A7002F
:1000D4005108A8000630A0000F205008A9005108BC
:1000E400AA0000302806031D792800302706031DC6
:1000F400B82800302A06031D812800302906031D74
:10010400B8280530A0000F205008A7005108A80007
:100114000630A0000F205008A9005108AA000030A2
:100124002806031D9728003027060319A428003049
:100134002A06031D9F2800302906031DA428AF0AA0
:100144000319B00A00302806031DAA280030270628
:10015400031DB72800302A06031DB22800302906E3
:100164000319B728B10A0319B20A7328803032067A
:10017400D000803030065002031DC2282F083102FF
:100184000318692AAB01AC018030013AD0008030F9
:100194002C065002031DD0282B08F43C031C042910
:1001A4000530A0000F205008A7005108A800063011
:1001B400A0000F205008A9005108AA00803028068A
:1001C400D000803034065002031DEA283308270289
:1001D400031CF0282708B3002808B40080302A063E
:1001E400D000803036065002031DFA283508290253
:1001F400031C00292908B5002A08B600AB0A031914
:10020400AC0AC6288030D000803034065002031D6A
:100214000D293308283C0318372A8030D000803059
:1002240036065002031D18293508283C0318372ABE
:1002340000303A06031D202900303906031D5F29CA
:10024400AD01AE018030D00080302E065002031D77
:100254002D292D08043C031C4E2983120514033058
:10026400DB000830DC007730DD00DD0B3729DC0BE8
:100274003729DB0B372905100330DB000830DC009D
:100284007730DD00DD0B4429DC0B4429DB0B4429EA
:10029400AD0A0319AE0A2429B90A0319BA0A0330AC
:1002A400DB008A30DC005530DD00DD0B5729DC0B28
:1002B4005729DB0B572900000000AF01B001B10141
:1002C400B201B301B401B501B601AB01AC01803098
:1002D400013AD00080302C065002031D73292B08EC
:1002E400F43C031CA7290530A0000F205008A700E8
:1002F4005108A8000630A0000F205008A90051089A
:10030400AA0080302806D000803034065002031D35
:100314008D2933082702031C93292708B3002808D2
:10032400B40080302A06D000803036065002031D07
:100334009D2935082902031CA3292908B5002A0888
:10034400B600AB0A0319AC0A692980303406D00020
:1003540080305002031DB029283033020318B3291A
:10036400372A80303606D00080305002031DBC2965
:10037400283035020318BF29372A00302806031D08
:10038400C52900302706031D042A00302A06031D50
:10039400CD2900302906031D042A0530A0000F20B2
:1003A4005008A7005108A8000630A0000F205008EC
:1003B400A9005108AA0000302806031DE3290030D3
:1003C40027060319F02900302A06031DEB29003003
:1003D4002906031DF029AF0A0319B00A00302806C4
:1003E400031DF62900302706031D032A00302A06C0
:1003F400031DFE29003029060319032AB10A031933
:10040400B20ABF2980303006D00080303206500254
:10041400031D0E2A31082F020318112A372A8312CA
:100424000514871500303806031D1A2A00303706D4
:10043400031D362A07168230DC00DD30DD00DD0BBB
:10044400212ADC0B212A00000000BB0A0319BC0A84
:1004540000303C06031D302A32303B06031D362A89
:100464000712B70A0319B80A04298312BB01BC0195
:10047400B701B801B901BA01AF01B001B101B201CC
:10048400051085148711071280303606D00080309D
:100494005002031D4F2A143035020318692A06300E
:1004A400A0000F205008A9005108AA00803051066E
:1004B400D200803036065202031D622A35085002EB
:1004C400031C682A2908B5002A08B600462A803089
:1004D4003006D000803032065002031D732A3108E2
:1004E4002F020318952A8312051085140330DB00AC
:1004F4000830DC007730DD00DD0B7E2ADC0B7E2A41
:10050400DB0B7E2A85100330DB000830DC007730FB
:10051400DD00DD0B8B2ADC0B8B2ADB0B8B2AAF0176
:10052400B001B101B2010530A0000F205008A700AE
:100534005108A8000630A0000F205008A900510857
:06054400AA007328A42A9E
:100558002130840001308312D000AA30A20002307A
:06056800A3003E20080084
:02055400403431
:02400E009431EB
:00000001FF
