:02000000512885
:0E0006008312031323088A00220882000800D8
:100014000E3083120313FD00FD0B0E2800000800B0
:10002400C730831203139F052008F000F00D7010F1
:10003400F00D7010F00D701070089F040A201F1549
:100044001F1D2628000022281E08F100F001831637
:0A0054001E08F0040030F10408005B
:10005E00123083120313A4000030A5002030A60036
:10006E0000309F01C0309F042109F00070088316F4
:0C007E009F051F179F1783121F14080016
:10008A0003208A110A128000840AA20A0319A30A09
:08009A00F003031D45280800D6
:1000A200BE2283120313AF01B001B101B201B30149
:1000B200B401B501B601B701B801B901BA01BB017A
:1000C200BC0183168501071287118312850107126D
:1000D20087112F200530A000122070088312A7007C
:1000E2007108A8000630A000122070088312A9002F
:1000F2007108AA0000302806031D81280030270657
:10010200031DC22800302A06031D89280030290653
:10011200031DC2280530A000122070088312A70018
:100122007108A8000630A000122070088312A900EE
:100132007108AA0000302806031DA12800302706F6
:100142000319AE2800302A06031DA928003029060B
:10015200031DAE28AF0A0319B00A00302806031D9A
:10016200B42800302706031DC12800302A06031DCB
:10017200BC28003029060319C128B10A0319B20AA2
:100182007B2880303206F000803030067002031D7A
:10019200CC282F08310203187A2AAB01AC01803037
:1001A200013AF00080302C067002031DDA282B0879
:1001B200F43C031C10290530A000122070088312A1
:1001C200A7007108A8000630A00012207008831250
:1001D200A9007108AA0080302806F0008030340699
:1001E2007002031DF62833082702031CFC28270887
:1001F200B3002808B40080302A06F00080303606AA
:100202007002031D062935082902031C0C2929083E
:10021200B5002A08B600AB0A0319AC0AD028803010
:10022200F000803034067002031D19293308283C7F
:100232000318482A8030F000803036067002031D11
:1002420024293508283C0318482A00303A06031DA1
:100252002C2900303906031D6A29AD01AE01803018
:10026200F00080302E067002031D39292D08043C4F
:10027200031C592905140530FB000F30FC00F13036
:10028200FD00FD0B4229FC0B4229FB0B4229051004
:100292000530FB000F30FC00F130FD00FD0B4F2953
:1002A200FC0B4F29FB0B4F29AD0A0319AE0A30296B
:1002B200B90A0319BA0A0630FB001330FC00AD304C
:1002C200FD00FD0B6229FC0B6229FB0B6229000079
:1002D2000000AF01B001B101B201B301B401B50137
:1002E200B601AB01AC018030013AF00080302C063F
:1002F2007002031D7E292B08F43C031CB42905302F
:10030200A000122070088312A7007108A80006300E
:10031200A000122070088312A9007108AA00803080
:100322002806F000803034067002031D9A29330833
:100332002702031CA0292708B3002808B400803034
:100342002A06F000803036067002031DAA293508FD
:100352002902031CB0292908B5002A08B600AB0AF5
:100362000319AC0A742980303406F0008030700220
:10037200031DBD29283033020318C029482A8030C2
:100382003606F00080307002031DC929283035027C
:100392000318CC29482A00302806031DD229003030
:1003A2002706031D132A00302A06031DDA2900300E
:1003B2002906031D132A0530A0001220700883129B
:1003C200A7007108A8000630A0001220700883124E
:1003D200A9007108AA0000302806031DF229003086
:1003E20027060319FF2900302A06031DFA290030C7
:1003F2002906031DFF29AF0A0319B00A0030280697
:10040200031D052A00302706031D122A00302A0682
:10041200031D0D2A003029060319122AB10A0319F5
:10042200B20ACC2980303006F000803032067002E9
:10043200031D1D2A31082F020318202A482A0514F9
:10044200871500303806031D282A00303706031DA1
:10045200472A07160230FB000430FC00BA30FD00C8
:10046200FD0B312AFC0B312AFB0B312A0000BB0A9F
:100472000319BC0A00303C06031D412A32303B06F8
:10048200031D472A0712B70A0319B80A1029BB012C
:10049200BC01B701B801B901BA01AF01B001B101A4
:1004A200B201051085148711071280303606F0005C
:1004B20080307002031D5F2A1430350203187A2A35
:1004C2000630A000122070088312A9007108AA0049
:1004D20080307106F200803036067202031D732AE4
:1004E20035087002031C792A2908B5002A08B600CB
:1004F200562A80303006F000803032067002031D2A
:10050200842A31082F020318A52A05108514053004
:10051200FB000F30FC00F130FD00FD0B8E2AFC0BBE
:100522008E2AFB0B8E2A85100530FB000F30FC0053
:10053200F130FD00FD0B9B2AFC0B9B2AFB0B9B2A37
:10054200AF01B001B101B2010530A0001220700864
:100552008312A7007108A8000630A00012207008BC
:0C0562008312A9007108AA007B28B62AA9
:10057C0021308400013083120313F000BC30A20040
:08058C000230A3004520080025
:020578000F343E
:02400E004A2F37
:00000001FF
