:02000000D42901
:10000600063083120313FD00FD0B072800000800CD
:0A0016000320871403208710080060
:06002000000000000800D2
:0E0026008312031329088A00280882000800AC
:1000340083120313FB01FA01F9018030F800F10C7B
:10004400F00C031C2E287408F90775080318750FA3
:10005400FA070318FB0A0310F01F36287408FA077E
:1000640075080318750FFB07FB0CFA0CF90CF80C58
:10007400031C21287B08F3007A08F2007908F100B8
:060084007808F0000800FE
:10008A007F30831203134105F0007008C100871105
:10009A000711BF30F0057008C10070177008C10061
:0800AA00700886000B2008001D
:1000B200FF30831603138600102010208312871549
:1000C20087100715871403200608C100871007113F
:1000D200102010208316860183124108F0000800C8
:1000E2008312031387110711B830410486000B20D5
:0200F200080004
:1000F40083120313871087150711410886000B200C
:020104000800F1
:100106007F30831203134105F1007108C100711F8E
:0E0116008F28871607129128871207160800F7
:10012400831203133908073C0318992825292F083B
:100134003702F0003008031C013EF101F1022C08E3
:10014400F400F5011A207008BF007108C0003808D7
:10015400C10045203908C1007120BB012C083B02B5
:100164000318042938087F3C0318B92825293808BE
:10017400C10083203908C10071203808C10045201E
:1001840059207008BC0059207008BC003808C10010
:1001940083203908C10071203808C10045203F0878
:1001A4002A07F0002B080318013E4007F1007008ED
:1001B400A8007108A90013208A110A12F00070081F
:1001C400BD00BF0A0319C00A7009BE00F2283E0828
:1001D400BC00FE283D08BC00FE283D08BC06FE28E5
:1001E4003A08003A0319E9283A08013A0319EC28B5
:1001F4003A08023A0319EF283C08C1007A20B80AE9
:10020400BB0AB0283808C10083203908C100712016
:100214003808C1004520FF30BD00BE011D293D083E
:10022400BC003D08C1007A2025293E08BC003E08D8
:10023400C1007A2025293A08003A031911293A08FD
:08024400013A03191729080013
:10024C0083120313B401B501B6013408073C031C37
:10025C007829C10183203408C1007120C1014520D7
:10026C00B30133083F3C031C512935083107F0001A
:10027C0032080318013E3607F1007008A800710817
:10028C00A90013208A110A12C1007A20B50A031999
:10029C00B60AB30A37294030C10083203408C100A4
:1002AC0071204030C10045204030B30033087F3C02
:1002BC00031C762935083107F00032080318013E7B
:1002CC003607F1007008A8007108A90013208A11E4
:1002DC000A12C1007A20B50A0319B60AB30A5C29BE
:0602EC00B40A2B290800F2
:1002F20083120313B5012E08003A031D8C29053021
:10030200AC000730AD001130AA000630AB0020303F
:10031200AF000030B000350831078400000803192F
:10032200A4293508310784000008B7003208B80054
:100332003308B9003408BA0092202C0AF000700881
:08034200B207B50A8C2908007E
:10034A0083120313AE018316071087108711071152
:10035A0087120712831207108316860183128711E8
:10036A0007118712071607143F3086000B20C0308A
:10037A0086000B20871607123F3086000B20C030FC
:06038A0086000B200800B4
:1003900013208A110A128000840AA80A0319A90AE4
:0803A000F003031DC829080049
:1003A800573083120313A0004530A1004C30A2003F
:1003B8004330A3004F30A4004D30A5004530A600BF
:1003C800A701A5212030B1002D30B2000330B300C1
:1003D800B40179210B30FB002630FC005D30FD00B4
:1003E800FD0BF429FC0BF429FB0BF4290000000099
:1003F8001130B1000230B20026210B30FB0026304C
:10040800FC005D30FD00FD0B072AFC0B072AFB0BE7
:0A041800072A000000000F2A102A36
:10042200003400340034003400340034003400342A
:10043200003400340034003400340034003400341A
:10044200003400340034003400340034003400340A
:1004520000340034003400340034003400340034FA
:1004620000340034003400340034003400340034EA
:1004720000340034003400340034003400340034DA
:1004820000340034003400340034003400340034CA
:1004920000340034003400340034003400340034BA
:1004A20000340034003400340034003400340034AA
:1004B200003400340034003400340034003400349A
:1004C200003400340034003400340034003400348A
:1004D200003400340034003400340034003400347A
:1004E200003400340034003400340034003400346A
:1004F200003400340034003400340034003400345A
:100502000034003400340034003400340034003449
:100512000034003400340034003400340034003439
:100522000034003400340034003400340034003429
:100532000034003400340034003400340034003419
:100542000034003400340034003400340034003409
:1005520000340034003400340034003400340034F9
:1005620000340034003400340034003400340034E9
:1005720000340034003400340034003400340034D9
:1005820000340034003400340034003400340034C9
:1005920000340034003400340034003400340034B9
:1005A20000340034003400340034003480348034A9
:1005B200C034C034C034C034C034E034E034E03439
:1005C200E034E034E034E034E034E034C034C034C9
:1005D200C034C034C0348034803400340034003439
:1005E2000034003400340034003400340034003469
:1005F2000034003400340034003400340034003459
:100602000034003400340034003400340034003448
:100612000034003400340034003400340034003438
:100622000034003400340034003400340034003428
:100632000034003400340034003400340034003418
:100642000034003400340034003400340034003408
:1006520000340034003400340034003400340034F8
:1006620000340034003400340034003400340034E8
:1006720000340034003400340034003400340034D8
:1006820000340034003400340034003400340034C8
:100692000034003400340034003400344034303448
:1006A20018341C340C340634073403340334013454
:1006B20007347F3401340134003400340034003410
:1006C20070341C340C340134013401348134C134AB
:1006D20043346334373407340F340F341F343F3418
:1006E2007E34FC34F834F834E034C034003400345E
:1006F2000034003400340034003400340034003458
:100702000034003400340034003400340034003447
:100712000034003400340034003400340034003437
:100722000034003400340034003400340034003427
:100732000034003400340034003400340034003417
:100742000034003400340034003400340034003407
:1007520000340034003400340034FE34FE34FE34FD
:10076200FE34FE34FE34FE34FE34FE34FE34FE34F7
:10077200FE34FE34F834F034C034803400340034B3
:10078200003400340034003400348034C034E034A7
:10079200F834FC34FE34FE34FE34FE347E34BE348F
:1007A2003E343E343E343E343E343E343E343E34B7
:1007B200BE34BE34BE34FE34FE34FE346E343E34B7
:1007C2007E34FA34FE34FE34FE34FF34F934F0342D
:1007D200C034083408348C3484348434863482340B
:1007E200803480340334FF34FF34FF347E340034E9
:1007F2000034003400340034003400340034003457
:100802000034003400340034003400340034003446
:100812000034003400340034003400340034003436
:100822000034003400340034003400340034003426
:100832000034003400340034003400340034003416
:100842000034003400340034003400340034003406
:1008520000340034003400340034FF34FF34FF34F9
:10086200FF34FF34FF34FF34FF34003401340334E7
:1008720007341F343F34FF34FF34FF34FF34FC3479
:10088200F834E034F834FC34FE34FF34FF34FF34FF
:10089200BF34DF34FF34FB34FD34FE34FF34FF3425
:1008A200C034C034C034C034CC34DE34FF34CF342E
:1008B200CF34CF34CF34C734C134C034C034E03441
:1008C200E034FF34FF34FF34FF34FF34FF34FF34AD
:1008D2001F3400340034003400348034C034E03437
:1008E200603438343E341F34073403340034003467
:1008F2000034003400340034003400340034003456
:100902000034003400340034003400340034003445
:100912000034003400340034003400340034003435
:100922000034003400340034003400340034003425
:100932000034003400340034003400340034003415
:100942000034003400340034003400340034003405
:1009520000340034003400340034C734F734F73440
:100962007734F734F734C7340734F034F034F034E2
:1009720000340034F034F034F03403343734373494
:10098200F734F734F734373437340334F134F0348E
:10099200F73437343734F734F734E7340734F7347D
:1009A200F734F73437343734F734F734C734E734AD
:1009B200F734F73437343734F734F734F73407344D
:1009C200F734F734F73433343334F134F034F03469
:1009D2000034F034F034F334F134F134F034F034E0
:1009E20000346034F034F034F034F034F034F03465
:1009F200F034003400340034003400340034003465
:100A02000034003400340034003400340034003444
:100A12000034003400340034003400340034003434
:100A22000034003400340034003400340034003424
:100A32000034003400340034003400340034003414
:100A42000034003400340034003400340034003404
:100A520000340034003400340334033403340134EA
:100A620001340134033403340334013403340334D2
:100A720003340334033403340334003400340034C5
:100A820003340334033400340034003403340334B5
:100A920003340334033403340334013400340334A1
:100AA2000334033403340334033403340134013490
:100AB200033403340334033403340334033400347F
:100AC200033403340334033403340334033403346C
:100AD200003403340334033403340334033403345F
:100AE200033403340334033403340334033403344C
:100AF2000334003400340034003400340034003451
:100B02000034003400340034003400340034003443
:100B12000034003400340034003400340034003433
:100B22000034003400340034003400340034003423
:100B32000034003400340034003400340034003413
:100B42000034003400340034003400340034003403
:100B520000340034003400340034003400340034F3
:100B620000340034003400340034003400340034E3
:100B720000340034003400340034003400340034D3
:100B820000340034003400340034003400340034C3
:100B920000340034003400340034003400340034B3
:100BA20000340034003400340034003400340034A3
:100BB2000034003400340034003400340034003493
:100BC2000034003400340034003400340034003483
:100BD2000034003400340034003400340034003473
:100BE2000034003400340034003400340034003463
:100BF2000034003400340034003400340034003453
:100C02000034003400340034003400340034003442
:100C12000034003400340034003400340034003432
:100C220000340034003400340034003400345F34C3
:100C320000340034003407340034073400341434F0
:100C42007F3414347F34143424342A347F342A34E5
:100C5200123423341334083464346234363449345D
:100C62005534223450340034053403340034003413
:100C720000341C34223441340034003441342234F0
:100C82001C34003408342A341C342A34083408341E
:100C920008343E34083408340034503430340034DC
:100CA200003408340834083408340834003430344A
:100CB2003034003400342034103408340434023424
:100CC2003E345134493445343E34003442347F3466
:100CD200403400344234613451344934463421348E
:100CE200413445344B3431341834143412347F34A3
:100CF2001034273445344534453439343C344A348D
:100D020049344934303401347134093405340334FC
:100D12003634493449344934363406344934493452
:100D220029341E340034363436340034003400346E
:100D32005634363400340034003408341434223447
:100D420041341434143414341434143441342234F9
:100D52001434083400340234013451340934063472
:100D620032344934793441343E347E3411341134CE
:100D720011347E347F3449344934493436343E3474
:100D820041344134413422347F34413441342234B9
:100D92001C347F3449344934493441347F34093472
:100DA2000934013401343E34413441345134323453
:100DB2007F340834083408347F34003441347F34BB
:100DC200413400342034403441343F3401347F34E0
:100DD20008341434223441347F34403440344034B3
:100DE20040347F340234043402347F347F34043498
:100DF200083410347F343E344134413441343E347B
:100E02007F3409340934093406343E3441345134D0
:100E120021345E347F34093419342934463446345B
:100E22004934493449343134013401347F34013492
:100E320001343F344034403440343F341F34203492
:100E4200403420341F347F342034183420347F342B
:100E5200633414340834143463340334043478347B
:100E62000434033461345134493445344334003456
:100E720000347F34413441340234043408341034B1
:100E82002034413441347F34003400340434023499
:100E92000134023404344034403440344034403469
:100EA20000340134023404340034203454345434D1
:100EB200543478347F344834443444343834383405
:100EC200443444344434203438344434443448348C
:100ED2007F343834543454345434183408347E341F
:100EE20009340134023408341434543454343C3454
:100EF2007F340834043404347834003444347D3488
:100F0200403400342034403444343D34003400341E
:100F12007F34103428344434003441347F34403434
:100F220000347C3404341834043478347C34083487
:100F32000434043478343834443444344434383453
:100F42007C3414341434143408340834143414340F
:100F520018347C347C34083404340434083448347F
:100F6200543454345434203404343F3444344034FC
:100F720020343C344034403420347C341C3420341B
:100F8200403420341C343C344034303440343C341B
:100F9200443428341034283444340C34503450341B
:100FA20050343C344434643454344C344434003487
:100FB2000834363441340034003400347F34003491
:100FC20000340034413436340834003408340834F0
:100FD2002A341C34083408341C342A3408340834C3
:02400E004A2F37
:00000001FF
