:02000000AA282C
:0E000600093083120313FD00FD0B07280800CC
:0A001400032007170320071308005C
:10001E007F30831203132805F1007108A800711FA9
:0E002E001B28081588111D28081188150800C8
:10003C008312031307128712B830280486000A2093
:02004C000800AA
:0E004E008312031321088A0020088200080094
:10005C0083120313071307168712280886000A2039
:02006C0008008A
:10006E007F30831203132805F0007008A8000712D2
:10007E008712BF30F0057008A80070177008A8002E
:08008E00700886000A2008003A
:1000960027208A110A128000840AA00A0319A10ADD
:0800A600F003031D4B280800C4
:1000AE0083120313A501A601A7012508073C031C13
:1000BE00A928A8010F202508A8001E20A801372076
:1000CE00A40124083F3C031C822826082207F000C6
:1000DE0023080318013E2707F1007008A0007108DD
:1000EE00A10027208A110A12A8002E20A60A0319A1
:1000FE00A70AA40A68284030A8000F202508A800E7
:10010E001E204030A80037204030A40024087F3C39
:10011E00031CA72826082207F00023080318013E17
:10012E002707F1007008A0007108A10027208A118E
:10013E000A12A8002E20A60A0319A70AA40A8D28BF
:06014E00A50A5C28080070
:10015400C03083120313A2000030A30057200F30D5
:10016400FB000730FC009A30FD00FD0BB728FC0BA8
:0C017400B728FB0BB7280000BE28BF28EE
:10018000FF34FF34FF34FF34FF34FF34FF34FF34D7
:10019000FF34FF34FF34FF34FF34FF34FF34FF34C7
:1001A000FF34FF34FF34FF34FF34FF34FF34FF34B7
:1001B000FF34FF34FF34FF34FF34FF34FF34FF34A7
:1001C000FF34FF34FF34FF34FF34FF34FF34FF3497
:1001D000FF34FF34FF34FF34FF34FF34FF34FF3487
:1001E000FF34FF34FF34FF34FF34FF34FF34FF3477
:1001F000FF34FF34FF34FF34FF34FF34FF34FF3467
:10020000FF34FF34FF34FF34FF34FF34FF34FF3456
:10021000FF34FF34FF34FF34FF34FF34FF34FF3446
:10022000FF34FF34FF34FF34FF34FF34FF34FF3436
:10023000FF34FF34FF34FF34FF34FF34FF34FF3426
:10024000FF34FF34FF34FF34FF34FF34FF34FF3416
:10025000FF34FF34FF34FF34FF34FF34FF34FF3406
:10026000FF34FF34FF34FF34FF34FF34FF34FF34F6
:10027000FF34FF34FF34FF34FF34FF34FF34FF34E6
:10028000FF34FF34FF34FF34FF34FF34FF34FF34D6
:10029000FF34FF34FF34FF34FF34FF34FF34FF34C6
:1002A000FF34FF34FF34FF34FF34FF34FF34FF34B6
:1002B000FF34FF34FF34FF34FF34FF34FF34FF34A6
:1002C000FF34FF34FF34FF34FF34FF34FF34FF3496
:1002D000FF34FF34FF34FF34FF34FF34FF34FF3486
:1002E000FF34FF34FF34FF34FF34FF34FF34FF3476
:1002F000FF34FF34FF34FF34FF34FF34FF34FF3466
:10030000FF34FF34FF34FF34FF34FF347F347F3455
:100310003F343F343F343F343F341F341F341F34A5
:100320001F341F341F341F341F341F343F343F34F5
:100330003F343F343F347F347F34FF34FF34FF3465
:10034000FF34FF34FF34FF34FF34FF34FF34FF3415
:10035000FF34FF34FF34FF34FF34FF34FF34FF3405
:10036000FF34FF34FF34FF34FF34FF34FF34FF34F5
:10037000FF34FF34FF34FF34FF34FF34FF34FF34E5
:10038000FF34FF34FF34FF34FF34FF34FF34FF34D5
:10039000FF34FF34FF34FF34FF34FF34FF34FF34C5
:1003A000FF34FF34FF34FF34FF34FF34FF34FF34B5
:1003B000FF34FF34FF34FF34FF34FF34FF34FF34A5
:1003C000FF34FF34FF34FF34FF34FF34FF34FF3495
:1003D000FF34FF34FF34FF34FF34FF34FF34FF3485
:1003E000FF34FF34FF34FF34FF34FF34FF34FF3475
:1003F000FF34FF34FF34FF34FF34FF34BF34CF34D5
:10040000E734E334F334F934F834FC34FC34FE34A8
:10041000F8348034FE34FE34FF34FF34FF34FF34CC
:100420008F34E334F334FE34FE34FE347E343E3411
:10043000BC349C34C834F834F034F034E034C03484
:1004400081340334073407341F343F34FF34FF341E
:10045000FF34FF34FF34FF34FF34FF34FF34FF3404
:10046000FF34FF34FF34FF34FF34FF34FF34FF34F4
:10047000FF34FF34FF34FF34FF34FF34FF34FF34E4
:10048000FF34FF34FF34FF34FF34FF34FF34FF34D4
:10049000FF34FF34FF34FF34FF34FF34FF34FF34C4
:1004A000FF34FF34FF34FF34FF34FF34FF34FF34B4
:1004B000FF34FF34FF34FF34FF340134013401349E
:1004C0000134013401340134013401340134013484
:1004D0000134013407340F343F347F34FF34FF34A8
:1004E000FF34FF34FF34FF34FF347F343F341F3494
:1004F000073403340134013401340134813441348C
:10050000C134C134C134C134C134C134C134C13443
:100510004134413441340134013401349134C13423
:1005200081340534013401340134003406340F348D
:100530003F34F734F73473347B347B3479347D348F
:100540007F347F34FC340034003400348134FF3491
:10055000FF34FF34FF34FF34FF34FF34FF34FF3403
:10056000FF34FF34FF34FF34FF34FF34FF34FF34F3
:10057000FF34FF34FF34FF34FF34FF34FF34FF34E3
:10058000FF34FF34FF34FF34FF34FF34FF34FF34D3
:10059000FF34FF34FF34FF34FF34FF34FF34FF34C3
:1005A000FF34FF34FF34FF34FF34FF34FF34FF34B3
:1005B000FF34FF34FF34FF34FF34003400340034A0
:1005C00000340034003400340034FF34FE34FC3492
:1005D000F834E034C03400340034003400340334E0
:1005E00007341F340734033401340034003400343A
:1005F00040342034003404340234013400340034F4
:100600003F343F343F343F343334213400343034CA
:1006100030343034303438343E343F343F341F3497
:100620001F3400340034003400340034003400340B
:10063000E034FF34FF34FF34FF347F343F341F3461
:100640009F34C734C134E034F834FC34FF34FF3411
:10065000FF34FF34FF34FF34FF34FF34FF34FF3402
:10066000FF34FF34FF34FF34FF34FF34FF34FF34F2
:10067000FF34FF34FF34FF34FF34FF34FF34FF34E2
:10068000FF34FF34FF34FF34FF34FF34FF34FF34D2
:10069000FF34FF34FF34FF34FF34FF34FF34FF34C2
:1006A000FF34FF34FF34FF34FF34FF34FF34FF34B2
:1006B000FF34FF34FF34FF34FF3438340834083457
:1006C0008834083408343834F8340F340F340F3495
:1006D000FF34FF340F340F340F34FC34C834C834C3
:1006E000083408340834C834C834FC340E340F34A9
:1006F0000834C834C834083408341834F83408349A
:1007000008340834C834C834083408343834183449
:1007100008340834C834C834083408340834F83489
:10072000083408340834CC34CC340E340F340F344D
:10073000FF340F340F340C340E340E340F340F34B6
:10074000FF349F340F340F340F340F340F340F3411
:100750000F34FF34FF34FF34FF34FF34FF34FF34F1
:10076000FF34FF34FF34FF34FF34FF34FF34FF34F1
:10077000FF34FF34FF34FF34FF34FF34FF34FF34E1
:10078000FF34FF34FF34FF34FF34FF34FF34FF34D1
:10079000FF34FF34FF34FF34FF34FF34FF34FF34C1
:1007A000FF34FF34FF34FF34FF34FF34FF34FF34B1
:1007B000FF34FF34FF34FF34FC34FC34FC34FE34AB
:1007C000FE34FE34FC34FC34FC34FE34FC34FC34A3
:1007D000FC34FC34FC34FC34FC34FF34FF34FF3490
:1007E000FC34FC34FC34FF34FF34FF34FC34FC3480
:1007F000FC34FC34FC34FC34FC34FE34FF34FC3474
:10080000FC34FC34FC34FC34FC34FC34FE34FE3464
:10081000FC34FC34FC34FC34FC34FC34FC34FF3455
:10082000FC34FC34FC34FC34FC34FC34FC34FC3448
:10083000FF34FC34FC34FC34FC34FC34FC34FC3435
:10084000FC34FC34FC34FC34FC34FC34FC34FC3428
:10085000FC34FF34FF34FF34FF34FF34FF34FF3403
:10086000FF34FF34FF34FF34FF34FF34FF34FF34F0
:10087000FF34FF34FF34FF34FF34FF34FF34FF34E0
:10088000FF34FF34FF34FF34FF34FF34FF34FF34D0
:10089000FF34FF34FF34FF34FF34FF34FF34FF34C0
:1008A000FF34FF34FF34FF34FF34FF34FF34FF34B0
:1008B000FF34FF34FF34FF34FF34FF34FF34FF34A0
:1008C000FF34FF34FF34FF34FF34FF34FF34FF3490
:1008D000FF34FF34FF34FF34FF34FF34FF34FF3480
:1008E000FF34FF34FF34FF34FF34FF34FF34FF3470
:1008F000FF34FF34FF34FF34FF34FF34FF34FF3460
:10090000FF34FF34FF34FF34FF34FF34FF34FF344F
:10091000FF34FF34FF34FF34FF34FF34FF34FF343F
:10092000FF34FF34FF34FF34FF34FF34FF34FF342F
:10093000FF34FF34FF34FF34FF34FF34FF34FF341F
:10094000FF34FF34FF34FF34FF34FF34FF34FF340F
:10095000FF34FF34FF34FF34FF34FF34FF34FF34FF
:10096000FF34FF34FF34FF34FF34FF34FF34FF34EF
:10097000FF34FF34FF34FF34FF34FF34FF34FF34DF
:02400E00492F38
:00000001FF
