:02000000AE2927
:0E000600033083120313FD00FD0B07280800D2
:0A001400032008170320081308005A
:04001E0000000800D6
:0E0022008312031343088A004208820008007C
:1000300083120313FB01FA01F9018030F800F10C7F
:10004000F00C031C2C287408F90775080318750FA9
:10005000FA070318FB0A0310F01F34287408FA0784
:1000600075080318750FFB07FB0CFA0CF90CF80C5C
:10007000031C1F287B08F3007A08F2007908F100BE
:060080007808F000080002
:100086007F30831203135A05F0007008DA00081255
:100096008812BF30F0057008DA0070177008DA00B1
:0800A600700886000A20080022
:1000AE00FF308316031386000F200F2083120816CD
:1000BE0008138816081703200608DA00081388129A
:1000CE000F200F208316860183125A08F0000800B5
:1000DE008312031308128812B8305A0486000A20BD
:0200EE00080008
:1000F000831203130813081688125A0886000A2070
:020100000800F5
:100102007F30831203135A05F1007108DA00711F60
:0E0112008D28071787138F28071387170800FB
:10012000831203135208073C031897282329440815
:100130005002F0004508031C013EF101F10248089D
:10014000F400F50118207008D8007108D900510892
:10015000DA0043205208DA006F20D4014808540224
:100160000318022951087F3C0318B7282329510896
:10017000DA0081205208DA006F205108DA004320AB
:1001800057207008D50057207008D5005108DA00B4
:1001900081205208DA006F205108DA004320580805
:1001A0004607F00047080318013E5907F1007008A0
:1001B000C2007108C30011208A110A12F0007008F1
:1001C000D600D80A0319D90A7009D700F0285708B1
:1001D000D500FC285608D500FC285608D506FC2872
:1001E0005308003A0319E7285308013A0319EA288B
:1001F0005308023A0319ED285508DA007820D10A8D
:10020000D40AAE285108DA0081205208DA006F20A3
:100210005108DA004320FF30D600D7011B295608C9
:10022000D5005608DA00782023295708D50057084A
:10023000DA00782023295308003A03190F295308BC
:08024000013A03191529080019
:100248008312031307138717CD014D08073C031CBE
:100258003C294D08DA006F20CC014C083F3C031CB8
:100268003A294B08DA007820CC0A3129CD0A292905
:1002780087130717CD014D08073C031C52294D0869
:10028800DA006F20CC014C083F3C031C50294B0876
:0E029800DA007820CC0A4729CD0A3F29080059
:1002A60083120313CF014A08003A031D662905305D
:1002B600C8000730C9008230C6000230C7002030AF
:1002C600C4000030C5004F084B078400000803191E
:1002D6007E294F084B0784000008D0004C08D10047
:1002E6004D08D2004E08D3009020480AF00070084E
:0802F600CC07CF0A66290800BD
:1002FE0083120313CA018316881308130812881277
:10030E00071387138312881383168601831208122C
:10031E0088120713871788173F3086000A20C030CF
:10032E0086000A20071787133F3086000A20C03048
:06033E0086000A20080001
:1003440011208A110A128000840AC20A0319C30AFE
:08035400F003031DA2290800BB
:10035C004D3083120313A0004430A100A20157308A
:10036C00A3004530A4004C30A5004330A6004F300C
:10037C00A7004D30A8004530A900AA014830AB00B9
:10038C006530AC006C30AD006C30AE006F30AF003F
:10039C002030B0007730B1006F30B2007230B30053
:1003AC006C30B4006430B5002130B600B701413078
:1003BC00B8005530B9005430BA004F30BB00433050
:1003CC00BC004F30BD004430BE004530BF00533040
:1003DC00C000C10183168501FF30831285000630F1
:1003EC00FB001330FC00AD30FD00FD0BFB29FC0BBA
:1003FC00FB29FB0BFB290000000085010630FB00EC
:10040C001330FC00AD30FD00FD0B0A2AFC0B0A2A50
:10041C00FB0B0A2A000000007F212330CB000A309E
:10042C00CC000230CD00CE0153210630FB0013303E
:10043C00FC00AD30FD00FD0B212AFC0B212AFB0B2F
:10044C00212A00000000CB0124212030CB000A30EF
:10045C00CC000230CD00CE0153213830CB000A3015
:10046C00CC000630CD00CE0153210630FB001330FA
:10047C00FC00AD30FD00FD0B412AFC0B412AFB0BAF
:10048C00412A00000000CB0124212B30CB000A3084
:10049C00CC000230CD00CE0153210630FB001330CE
:1004AC00FC00AD30FD00FD0B592AFC0B592AFB0B4F
:1004BC00592A00000000FF3085000630FB00133085
:1004CC00FC00AD30FD00FD0B692AFC0B692AFB0B0F
:1004DC00692A0000000085010630FB001330FC0087
:1004EC00AD30FD00FD0B782AFC0B782AFB0B782A2B
:0804FC00000000004B2A812AD8
:1005040000340034003400340034003400345F34E8
:100514000034003400340734003407340034143415
:100524007F3414347F34143424342A347F342A340A
:100534001234233413340834643462343634493482
:100544005534223450340034053403340034003438
:1005540000341C3422344134003400344134223415
:100564001C34003408342A341C342A340834083443
:1005740008343E3408340834003450343034003401
:10058400003408340834083408340834003430346F
:100594003034003400342034103408340434023449
:1005A4003E345134493445343E34003442347F348B
:1005B40040340034423461345134493446342134B3
:1005C400413445344B3431341834143412347F34C8
:1005D4001034273445344534453439343C344A34B2
:1005E4004934493430340134713409340534033422
:1005F4003634493449344934363406344934493478
:1006040029341E3400343634363400340034003493
:10061400563436340034003400340834143422346C
:10062400413414341434143414341434413422341E
:100634001434083400340234013451340934063497
:1006440032344934793441343E347E3411341134F3
:1006540011347E347F3449344934493436343E3499
:1006640041344134413422347F34413441342234DE
:100674001C347F3449344934493441347F34093497
:100684000934013401343E34413441345134323478
:100694007F340834083408347F34003441347F34E0
:1006A400413400342034403441343F3401347F3405
:1006B40008341434223441347F34403440344034D8
:1006C40040347F340234043402347F347F340434BD
:1006D400083410347F343E344134413441343E34A0
:1006E4007F3409340934093406343E3441345134F6
:1006F40021345E347F340934193429344634463481
:100704004934493449343134013401347F340134B7
:1007140001343F344034403440343F341F342034B7
:10072400403420341F347F342034183420347F3450
:1007340063341434083414346334033404347834A0
:10074400043403346134513449344534433400347B
:1007540000347F34413441340234043408341034D6
:100764002034413441347F340034003404340234BE
:10077400013402340434403440344034403440348E
:1007840000340134023404340034203454345434F6
:10079400543478347F34483444344434383438342A
:1007A40044344434443420343834443444344834B1
:1007B4007F343834543454345434183408347E3444
:1007C40009340134023408341434543454343C3479
:1007D4007F340834043404347834003444347D34AD
:1007E400403400342034403444343D340034003444
:1007F4007F34103428344434003441347F3440345A
:1008040000347C3404341834043478347C340834AC
:100814000434043478343834443444344434383478
:100824007C34143414341434083408341434143434
:1008340018347C347C3408340434043408344834A4
:10084400543454345434203404343F344434403421
:1008540020343C344034403420347C341C34203440
:10086400403420341C343C344034303440343C3440
:10087400443428341034283444340C345034503440
:1008840050343C344434643454344C3444340034AC
:100894000834363441340034003400347F340034B6
:1008A4000034003441343634083400340834083415
:1008B4002A341C34083408341C342A3408340834E8
:02400E00092F78
:00000001FF
